{
  "_format": "hh-sol-artifact-1",
  "contractName": "LottoClient",
  "sourceName": "contracts/LottoClient.sol",
  "abi": [
    {
      "inputs": [
        {
          "internalType": "address",
          "name": "_address",
          "type": "address"
        }
      ],
      "stateMutability": "nonpayable",
      "type": "constructor"
    },
    {
      "inputs": [],
      "name": "AccessControlBadConfirmation",
      "type": "error"
    },
    {
      "inputs": [
        {
          "internalType": "address",
          "name": "account",
          "type": "address"
        },
        {
          "internalType": "bytes32",
          "name": "neededRole",
          "type": "bytes32"
        }
      ],
      "name": "AccessControlUnauthorizedAccount",
      "type": "error"
    },
    {
      "inputs": [],
      "name": "BadAttestor",
      "type": "error"
    },
    {
      "inputs": [
        {
          "internalType": "uint256",
          "name": "kenLen",
          "type": "uint256"
        },
        {
          "internalType": "uint256",
          "name": "valueLen",
          "type": "uint256"
        }
      ],
      "name": "BadCondLen",
      "type": "error"
    },
    {
      "inputs": [
        {
          "internalType": "uint256",
          "name": "kenLen",
          "type": "uint256"
        },
        {
          "internalType": "uint256",
          "name": "valueLen",
          "type": "uint256"
        }
      ],
      "name": "BadUpdateLen",
      "type": "error"
    },
    {
      "inputs": [
        {
          "internalType": "uint8",
          "name": "actionId",
          "type": "uint8"
        }
      ],
      "name": "CannotDecodeAction",
      "type": "error"
    },
    {
      "inputs": [
        {
          "internalType": "bytes",
          "name": "cond",
          "type": "bytes"
        },
        {
          "internalType": "uint32",
          "name": "expected",
          "type": "uint32"
        },
        {
          "internalType": "uint32",
          "name": "actual",
          "type": "uint32"
        }
      ],
      "name": "CondNotMet",
      "type": "error"
    },
    {
      "inputs": [],
      "name": "ECDSAInvalidSignature",
      "type": "error"
    },
    {
      "inputs": [
        {
          "internalType": "uint256",
          "name": "length",
          "type": "uint256"
        }
      ],
      "name": "ECDSAInvalidSignatureLength",
      "type": "error"
    },
    {
      "inputs": [
        {
          "internalType": "bytes32",
          "name": "s",
          "type": "bytes32"
        }
      ],
      "name": "ECDSAInvalidSignatureS",
      "type": "error"
    },
    {
      "inputs": [
        {
          "internalType": "bytes",
          "name": "data",
          "type": "bytes"
        }
      ],
      "name": "Internal_toUint32Strict_outOfBounds",
      "type": "error"
    },
    {
      "inputs": [
        {
          "internalType": "uint256",
          "name": "targetIdx",
          "type": "uint256"
        },
        {
          "internalType": "uint256",
          "name": "tailIdx",
          "type": "uint256"
        }
      ],
      "name": "InvalidPopTarget",
      "type": "error"
    },
    {
      "inputs": [],
      "name": "InvalidShortString",
      "type": "error"
    },
    {
      "inputs": [],
      "name": "MetaTxSignatureNotMatch",
      "type": "error"
    },
    {
      "inputs": [
        {
          "internalType": "uint256",
          "name": "actual",
          "type": "uint256"
        },
        {
          "internalType": "uint256",
          "name": "currentNonce",
          "type": "uint256"
        }
      ],
      "name": "NonceTooLow",
      "type": "error"
    },
    {
      "inputs": [
        {
          "internalType": "address",
          "name": "owner",
          "type": "address"
        }
      ],
      "name": "OwnableInvalidOwner",
      "type": "error"
    },
    {
      "inputs": [
        {
          "internalType": "address",
          "name": "account",
          "type": "address"
        }
      ],
      "name": "OwnableUnauthorizedAccount",
      "type": "error"
    },
    {
      "inputs": [],
      "name": "ReentrancyGuardReentrantCall",
      "type": "error"
    },
    {
      "inputs": [
        {
          "internalType": "string",
          "name": "str",
          "type": "string"
        }
      ],
      "name": "StringTooLong",
      "type": "error"
    },
    {
      "inputs": [
        {
          "internalType": "uint8",
          "name": "actionId",
          "type": "uint8"
        }
      ],
      "name": "UnsupportedAction",
      "type": "error"
    },
    {
      "anonymous": false,
      "inputs": [],
      "name": "EIP712DomainChanged",
      "type": "event"
    },
    {
      "anonymous": false,
      "inputs": [
        {
          "indexed": false,
          "internalType": "uint256",
          "name": "",
          "type": "uint256"
        }
      ],
      "name": "MessageProcessedTo",
      "type": "event"
    },
    {
      "anonymous": false,
      "inputs": [
        {
          "indexed": false,
          "internalType": "uint256",
          "name": "idx",
          "type": "uint256"
        },
        {
          "indexed": false,
          "internalType": "bytes",
          "name": "data",
          "type": "bytes"
        }
      ],
      "name": "MessageQueued",
      "type": "event"
    },
    {
      "anonymous": false,
      "inputs": [],
      "name": "MetaTxDecoded",
      "type": "event"
    },
    {
      "anonymous": false,
      "inputs": [
        {
          "indexed": true,
          "internalType": "address",
          "name": "previousOwner",
          "type": "address"
        },
        {
          "indexed": true,
          "internalType": "address",
          "name": "newOwner",
          "type": "address"
        }
      ],
      "name": "OwnershipTransferred",
      "type": "event"
    },
    {
      "anonymous": false,
      "inputs": [
        {
          "indexed": true,
          "internalType": "uint256",
          "name": "_raffleId",
          "type": "uint256"
        },
        {
          "indexed": true,
          "internalType": "address",
          "name": "_participant",
          "type": "address"
        },
        {
          "indexed": false,
          "internalType": "uint256[]",
          "name": "_numbers",
          "type": "uint256[]"
        }
      ],
      "name": "ParticipantRegistered",
      "type": "event"
    },
    {
      "anonymous": false,
      "inputs": [
        {
          "indexed": true,
          "internalType": "uint256",
          "name": "_raffleId",
          "type": "uint256"
        }
      ],
      "name": "RaffleEnded",
      "type": "event"
    },
    {
      "anonymous": false,
      "inputs": [
        {
          "indexed": true,
          "internalType": "uint256",
          "name": "_raffleId",
          "type": "uint256"
        }
      ],
      "name": "RaffleStarted",
      "type": "event"
    },
    {
      "anonymous": false,
      "inputs": [
        {
          "indexed": true,
          "internalType": "uint256",
          "name": "_raffleId",
          "type": "uint256"
        },
        {
          "indexed": false,
          "internalType": "uint256[]",
          "name": "_numbers",
          "type": "uint256[]"
        }
      ],
      "name": "ResultReceived",
      "type": "event"
    },
    {
      "anonymous": false,
      "inputs": [
        {
          "indexed": true,
          "internalType": "bytes32",
          "name": "role",
          "type": "bytes32"
        },
        {
          "indexed": true,
          "internalType": "bytes32",
          "name": "previousAdminRole",
          "type": "bytes32"
        },
        {
          "indexed": true,
          "internalType": "bytes32",
          "name": "newAdminRole",
          "type": "bytes32"
        }
      ],
      "name": "RoleAdminChanged",
      "type": "event"
    },
    {
      "anonymous": false,
      "inputs": [
        {
          "indexed": true,
          "internalType": "bytes32",
          "name": "role",
          "type": "bytes32"
        },
        {
          "indexed": true,
          "internalType": "address",
          "name": "account",
          "type": "address"
        },
        {
          "indexed": true,
          "internalType": "address",
          "name": "sender",
          "type": "address"
        }
      ],
      "name": "RoleGranted",
      "type": "event"
    },
    {
      "anonymous": false,
      "inputs": [
        {
          "indexed": true,
          "internalType": "bytes32",
          "name": "role",
          "type": "bytes32"
        },
        {
          "indexed": true,
          "internalType": "address",
          "name": "account",
          "type": "address"
        },
        {
          "indexed": true,
          "internalType": "address",
          "name": "sender",
          "type": "address"
        }
      ],
      "name": "RoleRevoked",
      "type": "event"
    },
    {
      "anonymous": false,
      "inputs": [
        {
          "indexed": true,
          "internalType": "uint256",
          "name": "_raffleId",
          "type": "uint256"
        },
        {
          "indexed": false,
          "internalType": "address[]",
          "name": "_winners",
          "type": "address[]"
        }
      ],
      "name": "WinnersRevealed",
      "type": "event"
    },
    {
      "inputs": [],
      "name": "ATTESTOR_ROLE",
      "outputs": [
        {
          "internalType": "bytes32",
          "name": "",
          "type": "bytes32"
        }
      ],
      "stateMutability": "view",
      "type": "function"
    },
    {
      "inputs": [],
      "name": "DEFAULT_ADMIN_ROLE",
      "outputs": [
        {
          "internalType": "bytes32",
          "name": "",
          "type": "bytes32"
        }
      ],
      "stateMutability": "view",
      "type": "function"
    },
    {
      "inputs": [],
      "name": "LAST_RAFFLE_DONE",
      "outputs": [
        {
          "internalType": "bytes",
          "name": "",
          "type": "bytes"
        }
      ],
      "stateMutability": "view",
      "type": "function"
    },
    {
      "inputs": [],
      "name": "LOTTO_MANAGER_ROLE",
      "outputs": [
        {
          "internalType": "bytes32",
          "name": "",
          "type": "bytes32"
        }
      ],
      "stateMutability": "view",
      "type": "function"
    },
    {
      "inputs": [],
      "name": "completeRaffle",
      "outputs": [],
      "stateMutability": "nonpayable",
      "type": "function"
    },
    {
      "inputs": [],
      "name": "currentRaffleId",
      "outputs": [
        {
          "internalType": "uint256",
          "name": "",
          "type": "uint256"
        }
      ],
      "stateMutability": "view",
      "type": "function"
    },
    {
      "inputs": [],
      "name": "eip712Domain",
      "outputs": [
        {
          "internalType": "bytes1",
          "name": "fields",
          "type": "bytes1"
        },
        {
          "internalType": "string",
          "name": "name",
          "type": "string"
        },
        {
          "internalType": "string",
          "name": "version",
          "type": "string"
        },
        {
          "internalType": "uint256",
          "name": "chainId",
          "type": "uint256"
        },
        {
          "internalType": "address",
          "name": "verifyingContract",
          "type": "address"
        },
        {
          "internalType": "bytes32",
          "name": "salt",
          "type": "bytes32"
        },
        {
          "internalType": "uint256[]",
          "name": "extensions",
          "type": "uint256[]"
        }
      ],
      "stateMutability": "view",
      "type": "function"
    },
    {
      "inputs": [
        {
          "internalType": "bytes32",
          "name": "role",
          "type": "bytes32"
        }
      ],
      "name": "getRoleAdmin",
      "outputs": [
        {
          "internalType": "bytes32",
          "name": "",
          "type": "bytes32"
        }
      ],
      "stateMutability": "view",
      "type": "function"
    },
    {
      "inputs": [
        {
          "internalType": "bytes",
          "name": "key",
          "type": "bytes"
        }
      ],
      "name": "getStorage",
      "outputs": [
        {
          "internalType": "bytes",
          "name": "",
          "type": "bytes"
        }
      ],
      "stateMutability": "view",
      "type": "function"
    },
    {
      "inputs": [
        {
          "internalType": "bytes32",
          "name": "role",
          "type": "bytes32"
        },
        {
          "internalType": "address",
          "name": "account",
          "type": "address"
        }
      ],
      "name": "grantRole",
      "outputs": [],
      "stateMutability": "nonpayable",
      "type": "function"
    },
    {
      "inputs": [
        {
          "internalType": "bytes32",
          "name": "role",
          "type": "bytes32"
        },
        {
          "internalType": "address",
          "name": "account",
          "type": "address"
        }
      ],
      "name": "hasRole",
      "outputs": [
        {
          "internalType": "bool",
          "name": "",
          "type": "bool"
        }
      ],
      "stateMutability": "view",
      "type": "function"
    },
    {
      "inputs": [],
      "name": "maxNumber",
      "outputs": [
        {
          "internalType": "uint256",
          "name": "",
          "type": "uint256"
        }
      ],
      "stateMutability": "view",
      "type": "function"
    },
    {
      "inputs": [
        {
          "internalType": "address",
          "name": "from",
          "type": "address"
        }
      ],
      "name": "metaTxGetNonce",
      "outputs": [
        {
          "internalType": "uint256",
          "name": "",
          "type": "uint256"
        }
      ],
      "stateMutability": "view",
      "type": "function"
    },
    {
      "inputs": [
        {
          "internalType": "address",
          "name": "from",
          "type": "address"
        },
        {
          "internalType": "bytes",
          "name": "data",
          "type": "bytes"
        }
      ],
      "name": "metaTxPrepare",
      "outputs": [
        {
          "components": [
            {
              "internalType": "address",
              "name": "from",
              "type": "address"
            },
            {
              "internalType": "uint256",
              "name": "nonce",
              "type": "uint256"
            },
            {
              "internalType": "bytes",
              "name": "data",
              "type": "bytes"
            }
          ],
          "internalType": "struct MetaTxReceiver.ForwardRequest",
          "name": "",
          "type": "tuple"
        },
        {
          "internalType": "bytes32",
          "name": "",
          "type": "bytes32"
        }
      ],
      "stateMutability": "view",
      "type": "function"
    },
    {
      "inputs": [
        {
          "internalType": "address",
          "name": "from",
          "type": "address"
        },
        {
          "internalType": "bytes",
          "name": "data",
          "type": "bytes"
        },
        {
          "internalType": "uint256",
          "name": "nonce",
          "type": "uint256"
        }
      ],
      "name": "metaTxPrepareWithNonce",
      "outputs": [
        {
          "components": [
            {
              "internalType": "address",
              "name": "from",
              "type": "address"
            },
            {
              "internalType": "uint256",
              "name": "nonce",
              "type": "uint256"
            },
            {
              "internalType": "bytes",
              "name": "data",
              "type": "bytes"
            }
          ],
          "internalType": "struct MetaTxReceiver.ForwardRequest",
          "name": "",
          "type": "tuple"
        },
        {
          "internalType": "bytes32",
          "name": "",
          "type": "bytes32"
        }
      ],
      "stateMutability": "view",
      "type": "function"
    },
    {
      "inputs": [
        {
          "components": [
            {
              "internalType": "address",
              "name": "from",
              "type": "address"
            },
            {
              "internalType": "uint256",
              "name": "nonce",
              "type": "uint256"
            },
            {
              "internalType": "bytes",
              "name": "data",
              "type": "bytes"
            }
          ],
          "internalType": "struct MetaTxReceiver.ForwardRequest",
          "name": "req",
          "type": "tuple"
        },
        {
          "internalType": "bytes",
          "name": "signature",
          "type": "bytes"
        }
      ],
      "name": "metaTxRollupU256CondEq",
      "outputs": [
        {
          "internalType": "bool",
          "name": "",
          "type": "bool"
        }
      ],
      "stateMutability": "nonpayable",
      "type": "function"
    },
    {
      "inputs": [
        {
          "components": [
            {
              "internalType": "address",
              "name": "from",
              "type": "address"
            },
            {
              "internalType": "uint256",
              "name": "nonce",
              "type": "uint256"
            },
            {
              "internalType": "bytes",
              "name": "data",
              "type": "bytes"
            }
          ],
          "internalType": "struct MetaTxReceiver.ForwardRequest",
          "name": "req",
          "type": "tuple"
        },
        {
          "internalType": "bytes",
          "name": "signature",
          "type": "bytes"
        }
      ],
      "name": "metaTxVerify",
      "outputs": [
        {
          "internalType": "bool",
          "name": "",
          "type": "bool"
        }
      ],
      "stateMutability": "view",
      "type": "function"
    },
    {
      "inputs": [],
      "name": "minNumber",
      "outputs": [
        {
          "internalType": "uint256",
          "name": "",
          "type": "uint256"
        }
      ],
      "stateMutability": "view",
      "type": "function"
    },
    {
      "inputs": [],
      "name": "nbNumbers",
      "outputs": [
        {
          "internalType": "uint8",
          "name": "",
          "type": "uint8"
        }
      ],
      "stateMutability": "view",
      "type": "function"
    },
    {
      "inputs": [],
      "name": "owner",
      "outputs": [
        {
          "internalType": "address",
          "name": "",
          "type": "address"
        }
      ],
      "stateMutability": "view",
      "type": "function"
    },
    {
      "inputs": [
        {
          "internalType": "uint256[]",
          "name": "_numbers",
          "type": "uint256[]"
        }
      ],
      "name": "participate",
      "outputs": [],
      "stateMutability": "nonpayable",
      "type": "function"
    },
    {
      "inputs": [
        {
          "internalType": "bytes",
          "name": "key",
          "type": "bytes"
        }
      ],
      "name": "queueGetBytes",
      "outputs": [
        {
          "internalType": "bytes",
          "name": "",
          "type": "bytes"
        }
      ],
      "stateMutability": "view",
      "type": "function"
    },
    {
      "inputs": [],
      "name": "queueGetPrefix",
      "outputs": [
        {
          "internalType": "bytes",
          "name": "",
          "type": "bytes"
        }
      ],
      "stateMutability": "pure",
      "type": "function"
    },
    {
      "inputs": [
        {
          "internalType": "bytes",
          "name": "key",
          "type": "bytes"
        }
      ],
      "name": "queueGetUint",
      "outputs": [
        {
          "internalType": "uint32",
          "name": "",
          "type": "uint32"
        }
      ],
      "stateMutability": "view",
      "type": "function"
    },
    {
      "inputs": [
        {
          "internalType": "address",
          "name": "_attestor",
          "type": "address"
        }
      ],
      "name": "registerAttestor",
      "outputs": [],
      "stateMutability": "nonpayable",
      "type": "function"
    },
    {
      "inputs": [],
      "name": "renounceOwnership",
      "outputs": [],
      "stateMutability": "nonpayable",
      "type": "function"
    },
    {
      "inputs": [
        {
          "internalType": "bytes32",
          "name": "role",
          "type": "bytes32"
        },
        {
          "internalType": "address",
          "name": "callerConfirmation",
          "type": "address"
        }
      ],
      "name": "renounceRole",
      "outputs": [],
      "stateMutability": "nonpayable",
      "type": "function"
    },
    {
      "inputs": [
        {
          "internalType": "uint256",
          "name": "",
          "type": "uint256"
        },
        {
          "internalType": "uint256",
          "name": "",
          "type": "uint256"
        }
      ],
      "name": "results",
      "outputs": [
        {
          "internalType": "uint256",
          "name": "",
          "type": "uint256"
        }
      ],
      "stateMutability": "view",
      "type": "function"
    },
    {
      "inputs": [
        {
          "internalType": "bytes32",
          "name": "role",
          "type": "bytes32"
        },
        {
          "internalType": "address",
          "name": "account",
          "type": "address"
        }
      ],
      "name": "revokeRole",
      "outputs": [],
      "stateMutability": "nonpayable",
      "type": "function"
    },
    {
      "inputs": [
        {
          "internalType": "bytes[]",
          "name": "condKeys",
          "type": "bytes[]"
        },
        {
          "internalType": "bytes[]",
          "name": "condValues",
          "type": "bytes[]"
        },
        {
          "internalType": "bytes[]",
          "name": "updateKeys",
          "type": "bytes[]"
        },
        {
          "internalType": "bytes[]",
          "name": "updateValues",
          "type": "bytes[]"
        },
        {
          "internalType": "bytes[]",
          "name": "actions",
          "type": "bytes[]"
        }
      ],
      "name": "rollupU256CondEq",
      "outputs": [
        {
          "internalType": "bool",
          "name": "",
          "type": "bool"
        }
      ],
      "stateMutability": "nonpayable",
      "type": "function"
    },
    {
      "inputs": [
        {
          "internalType": "uint8",
          "name": "_nbNumbers",
          "type": "uint8"
        },
        {
          "internalType": "uint256",
          "name": "_minNumber",
          "type": "uint256"
        },
        {
          "internalType": "uint256",
          "name": "_maxNumber",
          "type": "uint256"
        }
      ],
      "name": "setConfig",
      "outputs": [],
      "stateMutability": "nonpayable",
      "type": "function"
    },
    {
      "inputs": [],
      "name": "startRaffle",
      "outputs": [],
      "stateMutability": "nonpayable",
      "type": "function"
    },
    {
      "inputs": [],
      "name": "status",
      "outputs": [
        {
          "internalType": "enum Raffle.Status",
          "name": "",
          "type": "uint8"
        }
      ],
      "stateMutability": "view",
      "type": "function"
    },
    {
      "inputs": [
        {
          "internalType": "bytes4",
          "name": "interfaceId",
          "type": "bytes4"
        }
      ],
      "name": "supportsInterface",
      "outputs": [
        {
          "internalType": "bool",
          "name": "",
          "type": "bool"
        }
      ],
      "stateMutability": "view",
      "type": "function"
    },
    {
      "inputs": [
        {
          "internalType": "bytes",
          "name": "_bytes",
          "type": "bytes"
        }
      ],
      "name": "toUint32Strict",
      "outputs": [
        {
          "internalType": "uint32",
          "name": "",
          "type": "uint32"
        }
      ],
      "stateMutability": "pure",
      "type": "function"
    },
    {
      "inputs": [
        {
          "internalType": "address",
          "name": "newOwner",
          "type": "address"
        }
      ],
      "name": "transferOwnership",
      "outputs": [],
      "stateMutability": "nonpayable",
      "type": "function"
    },
    {
      "inputs": [
        {
          "internalType": "uint256",
          "name": "",
          "type": "uint256"
        },
        {
          "internalType": "uint256",
          "name": "",
          "type": "uint256"
        }
      ],
      "name": "winners",
      "outputs": [
        {
          "internalType": "address",
          "name": "",
          "type": "address"
        }
      ],
      "stateMutability": "view",
      "type": "function"
    }
  ],
  "bytecode": "0x6101606040523480156200001257600080fd5b5060405162006bbb38038062006bbb833981810160405281019062000038919062000607565b806040518060400160405280601881526020017f50686174526f6c6c75704d6574615478526563656976657200000000000000008152506040518060400160405280600581526020017f302e302e310000000000000000000000000000000000000000000000000000008152506001600781905550620000c36008836200023460201b90919060201c565b6101208181525050620000e16009826200023460201b90919060201c565b6101408181525050818051906020012060e08181525050808051906020012061010081815250504660a08181525050620001206200028c60201b60201c565b608081815250503073ffffffffffffffffffffffffffffffffffffffff1660c08173ffffffffffffffffffffffffffffffffffffffff16815250505050600073ffffffffffffffffffffffffffffffffffffffff168173ffffffffffffffffffffffffffffffffffffffff1603620001d25760006040517f1e4fbdf7000000000000000000000000000000000000000000000000000000008152600401620001c991906200064a565b60405180910390fd5b620001e381620002e960201b60201c565b50620001f96000801b82620003af60201b60201c565b506200022c7f6f4dcff8c541ad15a8260a6b295b3b25f712545ae9ee078b2cbf13bb1640fe6a82620003af60201b60201c565b505062000ba6565b60006020835110156200025a576200025283620004b360201b60201c565b905062000286565b826200026c836200052060201b60201c565b60000190816200027d9190620008e1565b5060ff60001b90505b92915050565b60007f8b73c3c69bb8fe3d512ecc4cf759cc79239f7b179b0ffacaa9a75d522b39400f60e051610100514630604051602001620002ce959493929190620009f4565b60405160208183030381529060405280519060200120905090565b6000600a60009054906101000a900473ffffffffffffffffffffffffffffffffffffffff16905081600a60006101000a81548173ffffffffffffffffffffffffffffffffffffffff021916908373ffffffffffffffffffffffffffffffffffffffff1602179055508173ffffffffffffffffffffffffffffffffffffffff168173ffffffffffffffffffffffffffffffffffffffff167f8be0079c531659141344cd1fd0a4f28419497f9722a3daafe3b4186f6b6457e060405160405180910390a35050565b6000620003c383836200052a60201b60201c565b620004a8576001600c600085815260200190815260200160002060000160008473ffffffffffffffffffffffffffffffffffffffff1673ffffffffffffffffffffffffffffffffffffffff16815260200190815260200160002060006101000a81548160ff021916908315150217905550620004446200059560201b60201c565b73ffffffffffffffffffffffffffffffffffffffff168273ffffffffffffffffffffffffffffffffffffffff16847f2f8788117e7eff1d82e926ec794901d17c78024a50270940304540a733656f0d60405160405180910390a460019050620004ad565b600090505b92915050565b600080829050601f815111156200050357826040517f305a27a9000000000000000000000000000000000000000000000000000000008152600401620004fa919062000ae0565b60405180910390fd5b805181620005119062000b36565b60001c1760001b915050919050565b6000819050919050565b6000600c600084815260200190815260200160002060000160008373ffffffffffffffffffffffffffffffffffffffff1673ffffffffffffffffffffffffffffffffffffffff16815260200190815260200160002060009054906101000a900460ff16905092915050565b600033905090565b600080fd5b600073ffffffffffffffffffffffffffffffffffffffff82169050919050565b6000620005cf82620005a2565b9050919050565b620005e181620005c2565b8114620005ed57600080fd5b50565b6000815190506200060181620005d6565b92915050565b60006020828403121562000620576200061f6200059d565b5b60006200063084828501620005f0565b91505092915050565b6200064481620005c2565b82525050565b600060208201905062000661600083018462000639565b92915050565b600081519050919050565b7f4e487b7100000000000000000000000000000000000000000000000000000000600052604160045260246000fd5b7f4e487b7100000000000000000000000000000000000000000000000000000000600052602260045260246000fd5b60006002820490506001821680620006e957607f821691505b602082108103620006ff57620006fe620006a1565b5b50919050565b60008190508160005260206000209050919050565b60006020601f8301049050919050565b600082821b905092915050565b600060088302620007697fffffffffffffffffffffffffffffffffffffffffffffffffffffffffffffffff826200072a565b6200077586836200072a565b95508019841693508086168417925050509392505050565b6000819050919050565b6000819050919050565b6000620007c2620007bc620007b6846200078d565b62000797565b6200078d565b9050919050565b6000819050919050565b620007de83620007a1565b620007f6620007ed82620007c9565b84845462000737565b825550505050565b600090565b6200080d620007fe565b6200081a818484620007d3565b505050565b5b8181101562000842576200083660008262000803565b60018101905062000820565b5050565b601f82111562000891576200085b8162000705565b62000866846200071a565b8101602085101562000876578190505b6200088e62000885856200071a565b8301826200081f565b50505b505050565b600082821c905092915050565b6000620008b66000198460080262000896565b1980831691505092915050565b6000620008d18383620008a3565b9150826002028217905092915050565b620008ec8262000667565b67ffffffffffffffff81111562000908576200090762000672565b5b620009148254620006d0565b6200092182828562000846565b600060209050601f83116001811462000959576000841562000944578287015190505b620009508582620008c3565b865550620009c0565b601f198416620009698662000705565b60005b8281101562000993578489015182556001820191506020850194506020810190506200096c565b86831015620009b35784890151620009af601f891682620008a3565b8355505b6001600288020188555050505b505050505050565b6000819050919050565b620009dd81620009c8565b82525050565b620009ee816200078d565b82525050565b600060a08201905062000a0b6000830188620009d2565b62000a1a6020830187620009d2565b62000a296040830186620009d2565b62000a386060830185620009e3565b62000a47608083018462000639565b9695505050505050565b600082825260208201905092915050565b60005b8381101562000a8257808201518184015260208101905062000a65565b60008484015250505050565b6000601f19601f8301169050919050565b600062000aac8262000667565b62000ab8818562000a51565b935062000aca81856020860162000a62565b62000ad58162000a8e565b840191505092915050565b6000602082019050818103600083015262000afc818462000a9f565b905092915050565b600081519050919050565b6000819050602082019050919050565b600062000b2d8251620009c8565b80915050919050565b600062000b438262000b04565b8262000b4f8462000b0f565b905062000b5c8162000b1f565b9250602082101562000b9f5762000b9a7fffffffffffffffffffffffffffffffffffffffffffffffffffffffffffffffff836020036008026200072a565b831692505b5050919050565b60805160a05160c05160e051610100516101205161014051615fba62000c016000396000611eda01526000611e9f01526000612dc801526000612da7015260006125c90152600061261f015260006126480152615fba6000f3fe608060405234801561001057600080fd5b50600436106102275760003560e01c8063715018a611610130578063bbbfe446116100b8578063d70c6f4e1161007c578063d70c6f4e14610698578063e32d6d59146106c8578063f2f9fa08146106e6578063f2fde38b14610702578063f4034a961461071e57610227565b8063bbbfe446146105e2578063c6a4bcde14610612578063caa0ff211461061c578063ce734b101461064c578063d547741f1461067c57610227565b806391d14854116100ff57806391d14854146105045780639b1d969214610534578063a217fddf14610564578063a51831a814610582578063ad0bc464146105b257610227565b8063715018a61461049a578063843739cd146104a457806384b0196e146104c25780638da5cb5b146104e657610227565b806336568abe116101b3578063531161371161018257806353116137146103f457806355b9303114610424578063602ad66514610442578063627236441461045e57806365df169e1461047c57610227565b806336568abe1461036b5780633a4f6999146103875780634929ff29146103a55780635232f0d7146103c357610227565b806322dae16c116101fa57806322dae16c146102c8578063242284f1146102f9578063248a9ca3146103035780632f2ff15d1461033357806331c160e41461034f57610227565b806301ffc9a71461022c5780630be3556d1461025c5780630efc88651461027a578063200d2ed2146102aa575b600080fd5b61024660048036038101906102419190613af0565b61074e565b6040516102539190613b38565b60405180910390f35b6102646107c8565b6040516102719190613be3565b60405180910390f35b610294600480360381019061028f9190613c3b565b610801565b6040516102a19190613cbc565b60405180910390f35b6102b261084f565b6040516102bf9190613d4e565b60405180910390f35b6102e260048036038101906102dd9190613dfa565b610862565b6040516102f0929190613f3f565b60405180910390f35b610301610a2b565b005b61031d60048036038101906103189190613f9b565b610a69565b60405161032a9190613fc8565b60405180910390f35b61034d60048036038101906103489190613fe3565b610a89565b005b6103696004803603810190610364919061405c565b610aab565b005b61038560048036038101906103809190613fe3565b610b5c565b005b61038f610bd7565b60405161039c91906140be565b60405180910390f35b6103ad610bdd565b6040516103ba9190613fc8565b60405180910390f35b6103dd60048036038101906103d891906140d9565b610c01565b6040516103eb929190613f3f565b60405180910390f35b61040e60048036038101906104099190614269565b610c62565b60405161041b91906142d1565b60405180910390f35b61042c610cdd565b60405161043991906140be565b60405180910390f35b61045c600480360381019061045791906142ec565b610ce3565b005b610466610d10565b6040516104739190613fc8565b60405180910390f35b610484610d34565b60405161049191906140be565b60405180910390f35b6104a2610d3a565b005b6104ac610d4e565b6040516104b99190613be3565b60405180910390f35b6104ca610d8b565b6040516104dd9796959493929190614458565b60405180910390f35b6104ee610e35565b6040516104fb9190613cbc565b60405180910390f35b61051e60048036038101906105199190613fe3565b610e5f565b60405161052b9190613b38565b60405180910390f35b61054e60048036038101906105499190614269565b610eca565b60405161055b9190613be3565b60405180910390f35b61056c610fd6565b6040516105799190613fc8565b60405180910390f35b61059c60048036038101906105979190614532565b610fdd565b6040516105a99190613b38565b60405180910390f35b6105cc60048036038101906105c79190614673565b61109b565b6040516105d99190613b38565b60405180910390f35b6105fc60048036038101906105f79190614673565b6112a9565b6040516106099190613b38565b60405180910390f35b61061a61143f565b005b61063660048036038101906106319190614269565b6114ba565b6040516106439190613be3565b60405180910390f35b61066660048036038101906106619190614269565b61156a565b60405161067391906142d1565b60405180910390f35b61069660048036038101906106919190613fe3565b61167d565b005b6106b260048036038101906106ad9190613c3b565b61169f565b6040516106bf91906140be565b60405180910390f35b6106d06116d0565b6040516106dd91906146fe565b60405180910390f35b61070060048036038101906106fb91906147dc565b6116e1565b005b61071c600480360381019061071791906142ec565b6117ba565b005b610738600480360381019061073391906142ec565b611840565b60405161074591906140be565b60405180910390f35b60007f7965db0b000000000000000000000000000000000000000000000000000000007bffffffffffffffffffffffffffffffffffffffffffffffffffffffff1916827bffffffffffffffffffffffffffffffffffffffffffffffffffffffff191614806107c157506107c082611889565b5b9050919050565b6040518060400160405280600f81526020017f5f6c617374526166666c65446f6e65000000000000000000000000000000000081525081565b6006602052816000526040600020818154811061081d57600080fd5b906000526020600020016000915091509054906101000a900473ffffffffffffffffffffffffffffffffffffffff1681565b600460009054906101000a900460ff1681565b61086a613919565b6000600b60008773ffffffffffffffffffffffffffffffffffffffff1673ffffffffffffffffffffffffffffffffffffffff168152602001908152602001600020548310156109315782600b60008873ffffffffffffffffffffffffffffffffffffffff1673ffffffffffffffffffffffffffffffffffffffff168152602001908152602001600020546040517f045f356c000000000000000000000000000000000000000000000000000000008152600401610928929190614825565b60405180910390fd5b600060405180606001604052808873ffffffffffffffffffffffffffffffffffffffff16815260200185815260200187878080601f016020809104026020016040519081016040528093929190818152602001838380828437600081840152601f19601f8201169050808301925050505050505081525090506000610a187f2c521d146a6f6c09462cb178367b028f1718b1f01d7995bb405dae702c2bee7d89878a8a6040516109e292919061487e565b60405180910390206040516020016109fd9493929190614897565b604051602081830303815290604052805190602001206118f3565b9050818193509350505094509492505050565b7f6f4dcff8c541ad15a8260a6b295b3b25f712545ae9ee078b2cbf13bb1640fe6a610a558161190d565b610a5d611921565b610a65611977565b5050565b6000600c6000838152602001908152602001600020600101549050919050565b610a9282610a69565b610a9b8161190d565b610aa58383611aa7565b50505050565b7f6f4dcff8c541ad15a8260a6b295b3b25f712545ae9ee078b2cbf13bb1640fe6a610ad58161190d565b60006004811115610ae957610ae8613cd7565b5b600460009054906101000a900460ff166004811115610b0b57610b0a613cd7565b5b14610b4b576040517f08c379a0000000000000000000000000000000000000000000000000000000008152600401610b4290614928565b60405180910390fd5b610b56848484611b99565b50505050565b610b64611c4e565b73ffffffffffffffffffffffffffffffffffffffff168173ffffffffffffffffffffffffffffffffffffffff1614610bc8576040517f6697b23200000000000000000000000000000000000000000000000000000000815260040160405180910390fd5b610bd28282611c56565b505050565b60025481565b7f6f4dcff8c541ad15a8260a6b295b3b25f712545ae9ee078b2cbf13bb1640fe6a81565b610c09613919565b6000610c56858585600b60008a73ffffffffffffffffffffffffffffffffffffffff1673ffffffffffffffffffffffffffffffffffffffff16815260200190815260200160002054610862565b91509150935093915050565b600080825103610c755760009050610cd8565b6020825114610cbb57816040517f3d7dc906000000000000000000000000000000000000000000000000000000008152600401610cb29190613be3565b60405180910390fd5b600082806020019051810190610cd19190614974565b9050809150505b919050565b60015481565b610d0d7fa7e0cd0f2772b23ee4c329892293a6bd99d48c306b094d6d008c9a8bb8b731e482610a89565b50565b7fa7e0cd0f2772b23ee4c329892293a6bd99d48c306b094d6d008c9a8bb8b731e481565b60035481565b610d42611d49565b610d4c6000611dd0565b565b60606040518060400160405280600281526020017f712f000000000000000000000000000000000000000000000000000000000000815250905090565b600060608060008060006060610d9f611e96565b610da7611ed1565b46306000801b600067ffffffffffffffff811115610dc857610dc761413e565b5b604051908082528060200260200182016040528015610df65781602001602082028036833780820191505090505b507f0f00000000000000000000000000000000000000000000000000000000000000959493929190965096509650965096509650965090919293949596565b6000600a60009054906101000a900473ffffffffffffffffffffffffffffffffffffffff16905090565b6000600c600084815260200190815260200160002060000160008373ffffffffffffffffffffffffffffffffffffffff1673ffffffffffffffffffffffffffffffffffffffff16815260200190815260200160002060009054906101000a900460ff16905092915050565b606060006040518060400160405280600281526020017f712f00000000000000000000000000000000000000000000000000000000000081525083604051602001610f169291906149d2565b6040516020818303038152906040529050600d81604051610f3791906149f6565b90815260200160405180910390208054610f5090614a3c565b80601f0160208091040260200160405190810160405280929190818152602001828054610f7c90614a3c565b8015610fc95780601f10610f9e57610100808354040283529160200191610fc9565b820191906000526020600020905b815481529060010190602001808311610fac57829003601f168201915b5050505050915050919050565b6000801b81565b60003073ffffffffffffffffffffffffffffffffffffffff163373ffffffffffffffffffffffffffffffffffffffff161415801561104257506110407fa7e0cd0f2772b23ee4c329892293a6bd99d48c306b094d6d008c9a8bb8b731e433610e5f565b155b15611079576040517f20d82bef00000000000000000000000000000000000000000000000000000000815260040160405180910390fd5b61108b8b8b8b8b8b8b8b8b8b8b611f0c565b90509a9950505050505050505050565b60008383836110ab8383836112a9565b6110e1576040517fbde0493900000000000000000000000000000000000000000000000000000000815260040160405180910390fd5b600183602001356110f29190614a9c565b600b600085600001602081019061110991906142ec565b73ffffffffffffffffffffffffffffffffffffffff1673ffffffffffffffffffffffffffffffffffffffff168152602001908152602001600020819055506111837fa7e0cd0f2772b23ee4c329892293a6bd99d48c306b094d6d008c9a8bb8b731e488600001602081019061117e91906142ec565b610e5f565b6111b9576040517f20d82bef00000000000000000000000000000000000000000000000000000000815260040160405180910390fd5b60008060008060008b80604001906111d19190614adf565b8101906111de9190614c23565b945094509450945094507fd51c7c5244bba290f6c37777de0bc20a70c18abd55539658bc63251379297dcd60405160405180910390a13073ffffffffffffffffffffffffffffffffffffffff1663a51831a886868686866040518663ffffffff1660e01b8152600401611255959493929190614dec565b6020604051808303816000875af1158015611274573d6000803e3d6000fd5b505050506040513d601f19601f820116820180604052508101906112989190614e8e565b985050505050505050509392505050565b60008061139284848080601f016020809104026020016040519081016040528093929190818152602001838380828437600081840152601f19601f820116905080830192505050505050506113847f2c521d146a6f6c09462cb178367b028f1718b1f01d7995bb405dae702c2bee7d88600001602081019061132b91906142ec565b89602001358a80604001906113409190614adf565b60405161134e92919061487e565b60405180910390206040516020016113699493929190614897565b604051602081830303815290604052805190602001206118f3565b61229290919063ffffffff16565b90508460200135600b60008760000160208101906113b091906142ec565b73ffffffffffffffffffffffffffffffffffffffff1673ffffffffffffffffffffffffffffffffffffffff16815260200190815260200160002054148015611435575084600001602081019061140691906142ec565b73ffffffffffffffffffffffffffffffffffffffff168173ffffffffffffffffffffffffffffffffffffffff16145b9150509392505050565b7f6f4dcff8c541ad15a8260a6b295b3b25f712545ae9ee078b2cbf13bb1640fe6a6114698161190d565b6114716122be565b6114b660035460008060009054906101000a900460ff166001546002546040516020016114a2959493929190614f03565b604051602081830303815290604052612390565b5050565b6060600d826040516114cc91906149f6565b908152602001604051809103902080546114e590614a3c565b80601f016020809104026020016040519081016040528092919081815260200182805461151190614a3c565b801561155e5780601f106115335761010080835404028352916020019161155e565b820191906000526020600020905b81548152906001019060200180831161154157829003601f168201915b50505050509050919050565b6000806040518060400160405280600281526020017f712f000000000000000000000000000000000000000000000000000000000000815250836040516020016115b59291906149d2565b6040516020818303038152906040529050611675600d826040516115d991906149f6565b908152602001604051809103902080546115f290614a3c565b80601f016020809104026020016040519081016040528092919081815260200182805461161e90614a3c565b801561166b5780601f106116405761010080835404028352916020019161166b565b820191906000526020600020905b81548152906001019060200180831161164e57829003601f168201915b5050505050610c62565b915050919050565b61168682610a69565b61168f8161190d565b6116998383611c56565b50505050565b600560205281600052604060002081815481106116bb57600080fd5b90600052602060002001600091509150505481565b60008054906101000a900460ff1681565b600160048111156116f5576116f4613cd7565b5b600460009054906101000a900460ff16600481111561171757611716613cd7565b5b14611757576040517f08c379a000000000000000000000000000000000000000000000000000000000815260040161174e90614928565b60405180910390fd5b6117608161248f565b60003390508073ffffffffffffffffffffffffffffffffffffffff166003547fa6569476bef74256f20f62cfa8f46273209a09e96a46f1c5f7fcca09252b8fce846040516117ae9190614f56565b60405180910390a35050565b6117c2611d49565b600073ffffffffffffffffffffffffffffffffffffffff168173ffffffffffffffffffffffffffffffffffffffff16036118345760006040517f1e4fbdf700000000000000000000000000000000000000000000000000000000815260040161182b9190613cbc565b60405180910390fd5b61183d81611dd0565b50565b6000600b60008373ffffffffffffffffffffffffffffffffffffffff1673ffffffffffffffffffffffffffffffffffffffff168152602001908152602001600020549050919050565b60007f01ffc9a7000000000000000000000000000000000000000000000000000000007bffffffffffffffffffffffffffffffffffffffffffffffffffffffff1916827bffffffffffffffffffffffffffffffffffffffffffffffffffffffff1916149050919050565b60006119066119006125c5565b8361267c565b9050919050565b61191e81611919611c4e565b6126bd565b50565b60008060009054906101000a900460ff1660ff1611611975576040517f08c379a000000000000000000000000000000000000000000000000000000000815260040161196c90614fc4565b60405180910390fd5b565b600080600481111561198c5761198b613cd7565b5b600460009054906101000a900460ff1660048111156119ae576119ad613cd7565b5b14806119ec57506004808111156119c8576119c7613cd7565b5b600460009054906101000a900460ff1660048111156119ea576119e9613cd7565b5b145b611a2b576040517f08c379a0000000000000000000000000000000000000000000000000000000008152600401611a2290614928565b60405180910390fd5b600160036000828254611a3e9190614a9c565b925050819055506001600460006101000a81548160ff02191690836004811115611a6b57611a6a613cd7565b5b02179055506003547fe23fdee573320f133dc10284dcb988d5c782f07ec7b6b01d7ffbc6d537b2a42160405160405180910390a2600354905090565b6000611ab38383610e5f565b611b8e576001600c600085815260200190815260200160002060000160008473ffffffffffffffffffffffffffffffffffffffff1673ffffffffffffffffffffffffffffffffffffffff16815260200190815260200160002060006101000a81548160ff021916908315150217905550611b2b611c4e565b73ffffffffffffffffffffffffffffffffffffffff168273ffffffffffffffffffffffffffffffffffffffff16847f2f8788117e7eff1d82e926ec794901d17c78024a50270940304540a733656f0d60405160405180910390a460019050611b93565b600090505b92915050565b60008360ff1611611bdf576040517f08c379a0000000000000000000000000000000000000000000000000000000008152600401611bd690615056565b60405180910390fd5b818111611c21576040517f08c379a0000000000000000000000000000000000000000000000000000000008152600401611c18906150c2565b60405180910390fd5b826000806101000a81548160ff021916908360ff1602179055508160018190555080600281905550505050565b600033905090565b6000611c628383610e5f565b15611d3e576000600c600085815260200190815260200160002060000160008473ffffffffffffffffffffffffffffffffffffffff1673ffffffffffffffffffffffffffffffffffffffff16815260200190815260200160002060006101000a81548160ff021916908315150217905550611cdb611c4e565b73ffffffffffffffffffffffffffffffffffffffff168273ffffffffffffffffffffffffffffffffffffffff16847ff6391f5c32d9c69d2a47ea670b442974b53935d1edc7fd64eb21e047a839171b60405160405180910390a460019050611d43565b600090505b92915050565b611d51611c4e565b73ffffffffffffffffffffffffffffffffffffffff16611d6f610e35565b73ffffffffffffffffffffffffffffffffffffffff1614611dce57611d92611c4e565b6040517f118cdaa7000000000000000000000000000000000000000000000000000000008152600401611dc59190613cbc565b60405180910390fd5b565b6000600a60009054906101000a900473ffffffffffffffffffffffffffffffffffffffff16905081600a60006101000a81548173ffffffffffffffffffffffffffffffffffffffff021916908373ffffffffffffffffffffffffffffffffffffffff1602179055508173ffffffffffffffffffffffffffffffffffffffff168173ffffffffffffffffffffffffffffffffffffffff167f8be0079c531659141344cd1fd0a4f28419497f9722a3daafe3b4186f6b6457e060405160405180910390a35050565b6060611ecc60087f000000000000000000000000000000000000000000000000000000000000000061270e90919063ffffffff16565b905090565b6060611f0760097f000000000000000000000000000000000000000000000000000000000000000061270e90919063ffffffff16565b905090565b6000611f166127be565b888890508b8b905014611f68578a8a9050898990506040517f60e56888000000000000000000000000000000000000000000000000000000008152600401611f5f929190614825565b60405180910390fd5b848490508787905014611fba5786869050858590506040517fcca1bd42000000000000000000000000000000000000000000000000000000008152600401611fb1929190614825565b60405180910390fd5b60005b8b8b905081101561219c57600061209e600d8e8e85818110611fe257611fe16150e2565b5b9050602002810190611ff49190614adf565b60405161200292919061487e565b9081526020016040518091039020805461201b90614a3c565b80601f016020809104026020016040519081016040528092919081815260200182805461204790614a3c565b80156120945780601f1061206957610100808354040283529160200191612094565b820191906000526020600020905b81548152906001019060200180831161207757829003601f168201915b5050505050610c62565b905060006121128c8c858181106120b8576120b76150e2565b5b90506020028101906120ca9190614adf565b8080601f016020809104026020016040519081016040528093929190818152602001838380828437600081840152601f19601f82011690508083019250505050505050610c62565b90508063ffffffff168263ffffffff161461218d578d8d8481811061213a576121396150e2565b5b905060200281019061214c9190614adf565b82846040517fb2e58ea6000000000000000000000000000000000000000000000000000000008152600401612184949392919061513e565b60405180910390fd5b50508080600101915050611fbd565b5060005b8787905081101561222e578585828181106121be576121bd6150e2565b5b90506020028101906121d09190614adf565b600d8a8a858181106121e5576121e46150e2565b5b90506020028101906121f79190614adf565b60405161220592919061487e565b90815260200160405180910390209182612220929190615335565b5080806001019150506121a0565b5060005b838390508110156122775761226a848483818110612253576122526150e2565b5b90506020028101906122659190614adf565b612804565b8080600101915050612232565b5060019050612284612a81565b9a9950505050505050505050565b6000806000806122a28686612a8b565b9250925092506122b28282612ae7565b82935050505092915050565b600160048111156122d2576122d1613cd7565b5b600460009054906101000a900460ff1660048111156122f4576122f3613cd7565b5b14612334576040517f08c379a000000000000000000000000000000000000000000000000000000000815260040161232b90614928565b60405180910390fd5b6002600460006101000a81548160ff0219169083600481111561235a57612359613cd7565b5b02179055506003547fea9b3e286c888f91dfb0567aead086fe3c33239ddee154b7064f3043760cf05360405160405180910390a2565b6000806123d16040518060400160405280600581526020017f5f7461696c00000000000000000000000000000000000000000000000000000081525061156a565b90506000816040516020016123e691906142d1565b60405160208183030381529060405290506124018185612c4b565b61244c6040518060400160405280600581526020017f5f7461696c0000000000000000000000000000000000000000000000000000008152506001846124479190615405565b612cd7565b7f907e5e373368eaab41cf7fd560721ee39c92964cc7abc6eba2acb769b1f70799828560405161247d92919061546e565b60405180910390a18192505050919050565b612497611921565b60008054906101000a900460ff1660ff168151146124ea576040517f08c379a00000000000000000000000000000000000000000000000000000000081526004016124e1906154ea565b60405180910390fd5b60005b81518110156125c15760015482828151811061250c5761250b6150e2565b5b60200260200101511015612555576040517f08c379a000000000000000000000000000000000000000000000000000000000815260040161254c90615556565b60405180910390fd5b60025482828151811061256b5761256a6150e2565b5b602002602001015111156125b4576040517f08c379a00000000000000000000000000000000000000000000000000000000081526004016125ab906155c2565b60405180910390fd5b80806001019150506124ed565b5050565b60007f000000000000000000000000000000000000000000000000000000000000000073ffffffffffffffffffffffffffffffffffffffff163073ffffffffffffffffffffffffffffffffffffffff1614801561264157507f000000000000000000000000000000000000000000000000000000000000000046145b1561266e577f00000000000000000000000000000000000000000000000000000000000000009050612679565b612676612d82565b90505b90565b60006040517f190100000000000000000000000000000000000000000000000000000000000081528360028201528260228201526042812091505092915050565b6126c78282610e5f565b61270a5780826040517fe2517d3f0000000000000000000000000000000000000000000000000000000081526004016127019291906155e2565b60405180910390fd5b5050565b606060ff60001b831461272b5761272483612e18565b90506127b8565b81805461273790614a3c565b80601f016020809104026020016040519081016040528092919081815260200182805461276390614a3c565b80156127b05780601f10612785576101008083540402835291602001916127b0565b820191906000526020600020905b81548152906001019060200180831161279357829003601f168201915b505050505090505b92915050565b6002600754036127fa576040517f3ee5aeb500000000000000000000000000000000000000000000000000000000815260040160405180910390fd5b6002600781905550565b60008282600081811061281a576128196150e2565b5b9050013560f81c60f81b60f81c9050600060ff168160ff1603612857576128528383600190809261284d93929190615615565b612e8c565b612a7c565b600160ff168160ff16036128e25760218383905010156128af5760016040517f565ba7b90000000000000000000000000000000000000000000000000000000081526004016128a691906146fe565b60405180910390fd5b6000838360019080926128c493929190615615565b8101906128d19190615665565b90506128dc81613029565b50612a7b565b600a60ff168160ff160361298f57601583839050101561293a57600a6040517f565ba7b900000000000000000000000000000000000000000000000000000000815260040161293191906146fe565b60405180910390fd5b60008383600190809261294f93929190615615565b81019061295c91906156d0565b90506129887fa7e0cd0f2772b23ee4c329892293a6bd99d48c306b094d6d008c9a8bb8b731e482611aa7565b5050612a7a565b600b60ff168160ff1603612a3c5760158383905010156129e757600b6040517f565ba7b90000000000000000000000000000000000000000000000000000000081526004016129de91906146fe565b60405180910390fd5b6000838360019080926129fc93929190615615565b810190612a0991906156d0565b9050612a357fa7e0cd0f2772b23ee4c329892293a6bd99d48c306b094d6d008c9a8bb8b731e482611c56565b5050612a79565b806040517f0e8b3d1d000000000000000000000000000000000000000000000000000000008152600401612a7091906146fe565b60405180910390fd5b5b5b5b505050565b6001600781905550565b60008060006041845103612ad05760008060006020870151925060408701519150606087015160001a9050612ac2888285856131a6565b955095509550505050612ae0565b60006002855160001b9250925092505b9250925092565b60006003811115612afb57612afa613cd7565b5b826003811115612b0e57612b0d613cd7565b5b0315612c475760016003811115612b2857612b27613cd7565b5b826003811115612b3b57612b3a613cd7565b5b03612b72576040517ff645eedf00000000000000000000000000000000000000000000000000000000815260040160405180910390fd5b60026003811115612b8657612b85613cd7565b5b826003811115612b9957612b98613cd7565b5b03612bde578060001c6040517ffce698f7000000000000000000000000000000000000000000000000000000008152600401612bd591906140be565b60405180910390fd5b600380811115612bf157612bf0613cd7565b5b826003811115612c0457612c03613cd7565b5b03612c4657806040517fd78bce0c000000000000000000000000000000000000000000000000000000008152600401612c3d9190613fc8565b60405180910390fd5b5b5050565b60006040518060400160405280600281526020017f712f00000000000000000000000000000000000000000000000000000000000081525083604051602001612c959291906149d2565b604051602081830303815290604052905081600d82604051612cb791906149f6565b90815260200160405180910390209081612cd191906156fd565b50505050565b60006040518060400160405280600281526020017f712f00000000000000000000000000000000000000000000000000000000000081525083604051602001612d219291906149d2565b604051602081830303815290604052905081604051602001612d4391906142d1565b604051602081830303815290604052600d82604051612d6291906149f6565b90815260200160405180910390209081612d7c91906156fd565b50505050565b60007f8b73c3c69bb8fe3d512ecc4cf759cc79239f7b179b0ffacaa9a75d522b39400f7f00000000000000000000000000000000000000000000000000000000000000007f00000000000000000000000000000000000000000000000000000000000000004630604051602001612dfd9594939291906157cf565b60405160208183030381529060405280519060200120905090565b60606000612e258361329a565b90506000602067ffffffffffffffff811115612e4457612e4361413e565b5b6040519080825280601f01601f191660200182016040528015612e765781602001600182028036833780820191505090505b5090508181528360208201528092505050919050565b6000806000808585810190612ea19190615847565b935093509350935060006001811115612ebd57612ebc613cd7565b5b836001811115612ed057612ecf613cd7565b5b1480612eff5750600180811115612eea57612ee9613cd7565b5b836001811115612efd57612efc613cd7565b5b145b612f3e576040517f08c379a0000000000000000000000000000000000000000000000000000000008152600401612f3590615932565b60405180910390fd5b60006001811115612f5257612f51613cd7565b5b836001811115612f6557612f64613cd7565b5b03612fb757600080600084806020019051810190612f83919061597c565b925092509250600084806020019051810190612f9f9190615a66565b9050612fae88858585856132ea565b50505050613021565b600180811115612fca57612fc9613cd7565b5b836001811115612fdd57612fdc613cd7565b5b0361302057600082806020019051810190612ff89190615a66565b90506000828060200190518101906130109190615b87565b905061301d8683836133bd565b50505b5b505050505050565b60006130696040518060400160405280600581526020017f5f7461696c00000000000000000000000000000000000000000000000000000081525061156a565b90508063ffffffff168263ffffffff1611156130be5781816040517f186c5d530000000000000000000000000000000000000000000000000000000081526004016130b5929190615bd0565b60405180910390fd5b60006130fe6040518060400160405280600581526020017f5f6865616400000000000000000000000000000000000000000000000000000081525061156a565b90505b8263ffffffff168163ffffffff16101561312b5761311e816133ee565b8080600101915050613101565b5061316b6040518060400160405280600581526020017f5f6865616400000000000000000000000000000000000000000000000000000081525083612cd7565b7f32fd4e5662a5d890e9d364f2b91716af396675b17d0d56aa259e0a42ca55751c8260405161319a9190615bf9565b60405180910390a15050565b60008060007f7fffffffffffffffffffffffffffffff5d576e7357a4501ddfe92f46681b20a08460001c11156131e6576000600385925092509250613290565b60006001888888886040516000815260200160405260405161320b9493929190615c14565b6020604051602081039080840390855afa15801561322d573d6000803e3d6000fd5b505050602060405103519050600073ffffffffffffffffffffffffffffffffffffffff168173ffffffffffffffffffffffffffffffffffffffff160361328157600060016000801b93509350935050613290565b8060008060001b935093509350505b9450945094915050565b60008060ff8360001c169050601f8111156132e1576040517fb3512b0c00000000000000000000000000000000000000000000000000000000815260040160405180910390fd5b80915050919050565b6132f584848461349c565b6132fe8161248f565b6133088582613586565b8460405160200161331991906140be565b604051602081830303815290604052600d6040518060400160405280600f81526020017f5f6c617374526166666c65446f6e65000000000000000000000000000000000081525060405161336d91906149f6565b9081526020016040518091039020908161338791906156fd565b506133b5856001836040516020016133a193929190615c59565b604051602081830303815290604052612390565b505050505050565b6133c783836136cf565b6133d183826137d1565b60008151036133e8576133e2611977565b506133e9565b5b505050565b60008160405160200161340191906142d1565b604051602081830303815290604052905060006040518060400160405280600281526020017f712f0000000000000000000000000000000000000000000000000000000000008152508260405160200161345c9291906149d2565b6040516020818303038152906040529050600d8160405161347d91906149f6565b908152602001604051809103902060006134979190613950565b505050565b6134a4611921565b8260ff1660008054906101000a900460ff1660ff16146134f9576040517f08c379a00000000000000000000000000000000000000000000000000000000081526004016134f090615ce3565b60405180910390fd5b816001541461353d576040517f08c379a000000000000000000000000000000000000000000000000000000000815260040161353490615d4f565b60405180910390fd5b8060025414613581576040517f08c379a000000000000000000000000000000000000000000000000000000000815260040161357890615dbb565b60405180910390fd5b505050565b81600354146135ca576040517f08c379a00000000000000000000000000000000000000000000000000000000081526004016135c190615e27565b60405180910390fd5b600260048111156135de576135dd613cd7565b5b600460009054906101000a900460ff166004811115613600576135ff613cd7565b5b14613640576040517f08c379a000000000000000000000000000000000000000000000000000000000815260040161363790614928565b60405180910390fd5b80600560008481526020019081526020016000209080519060200190613667929190613990565b506003600460006101000a81548160ff0219169083600481111561368e5761368d613cd7565b5b0217905550817fd0831b93bbb8f9f073caaf417b51576cf0ee3c05c9e6b35b4524a3d889107f1d826040516136c39190614f56565b60405180910390a25050565b8051600560008481526020019081526020016000208054905014613728576040517f08c379a000000000000000000000000000000000000000000000000000000000815260040161371f90615e93565b60405180910390fd5b60005b81518110156137cc57818181518110613747576137466150e2565b5b6020026020010151600560008581526020019081526020016000208281548110613774576137736150e2565b5b9060005260206000200154146137bf576040517f08c379a00000000000000000000000000000000000000000000000000000000081526004016137b690615e93565b60405180910390fd5b808060010191505061372b565b505050565b8160035414613815576040517f08c379a000000000000000000000000000000000000000000000000000000000815260040161380c90615e27565b60405180910390fd5b6003600481111561382957613828613cd7565b5b600460009054906101000a900460ff16600481111561384b5761384a613cd7565b5b1461388b576040517f08c379a000000000000000000000000000000000000000000000000000000000815260040161388290614928565b60405180910390fd5b806006600084815260200190815260200160002090805190602001906138b29291906139dd565b5060048060006101000a81548160ff021916908360048111156138d8576138d7613cd7565b5b0217905550817f5f329fe3c7991ca9f5f5bb7671f72841afed8a7f9e8c50165f09be303329540e8260405161390d9190615f62565b60405180910390a25050565b6040518060600160405280600073ffffffffffffffffffffffffffffffffffffffff16815260200160008152602001606081525090565b50805461395c90614a3c565b6000825580601f1061396e575061398d565b601f01602090049060005260206000209081019061398c9190613a67565b5b50565b8280548282559060005260206000209081019282156139cc579160200282015b828111156139cb5782518255916020019190600101906139b0565b5b5090506139d99190613a67565b5090565b828054828255906000526020600020908101928215613a56579160200282015b82811115613a555782518260006101000a81548173ffffffffffffffffffffffffffffffffffffffff021916908373ffffffffffffffffffffffffffffffffffffffff160217905550916020019190600101906139fd565b5b509050613a639190613a67565b5090565b5b80821115613a80576000816000905550600101613a68565b5090565b6000604051905090565b600080fd5b600080fd5b60007fffffffff0000000000000000000000000000000000000000000000000000000082169050919050565b613acd81613a98565b8114613ad857600080fd5b50565b600081359050613aea81613ac4565b92915050565b600060208284031215613b0657613b05613a8e565b5b6000613b1484828501613adb565b91505092915050565b60008115159050919050565b613b3281613b1d565b82525050565b6000602082019050613b4d6000830184613b29565b92915050565b600081519050919050565b600082825260208201905092915050565b60005b83811015613b8d578082015181840152602081019050613b72565b60008484015250505050565b6000601f19601f8301169050919050565b6000613bb582613b53565b613bbf8185613b5e565b9350613bcf818560208601613b6f565b613bd881613b99565b840191505092915050565b60006020820190508181036000830152613bfd8184613baa565b905092915050565b6000819050919050565b613c1881613c05565b8114613c2357600080fd5b50565b600081359050613c3581613c0f565b92915050565b60008060408385031215613c5257613c51613a8e565b5b6000613c6085828601613c26565b9250506020613c7185828601613c26565b9150509250929050565b600073ffffffffffffffffffffffffffffffffffffffff82169050919050565b6000613ca682613c7b565b9050919050565b613cb681613c9b565b82525050565b6000602082019050613cd16000830184613cad565b92915050565b7f4e487b7100000000000000000000000000000000000000000000000000000000600052602160045260246000fd5b60058110613d1757613d16613cd7565b5b50565b6000819050613d2882613d06565b919050565b6000613d3882613d1a565b9050919050565b613d4881613d2d565b82525050565b6000602082019050613d636000830184613d3f565b92915050565b613d7281613c9b565b8114613d7d57600080fd5b50565b600081359050613d8f81613d69565b92915050565b600080fd5b600080fd5b600080fd5b60008083601f840112613dba57613db9613d95565b5b8235905067ffffffffffffffff811115613dd757613dd6613d9a565b5b602083019150836001820283011115613df357613df2613d9f565b5b9250929050565b60008060008060608587031215613e1457613e13613a8e565b5b6000613e2287828801613d80565b945050602085013567ffffffffffffffff811115613e4357613e42613a93565b5b613e4f87828801613da4565b93509350506040613e6287828801613c26565b91505092959194509250565b613e7781613c9b565b82525050565b613e8681613c05565b82525050565b600082825260208201905092915050565b6000613ea882613b53565b613eb28185613e8c565b9350613ec2818560208601613b6f565b613ecb81613b99565b840191505092915050565b6000606083016000830151613eee6000860182613e6e565b506020830151613f016020860182613e7d565b5060408301518482036040860152613f198282613e9d565b9150508091505092915050565b6000819050919050565b613f3981613f26565b82525050565b60006040820190508181036000830152613f598185613ed6565b9050613f686020830184613f30565b9392505050565b613f7881613f26565b8114613f8357600080fd5b50565b600081359050613f9581613f6f565b92915050565b600060208284031215613fb157613fb0613a8e565b5b6000613fbf84828501613f86565b91505092915050565b6000602082019050613fdd6000830184613f30565b92915050565b60008060408385031215613ffa57613ff9613a8e565b5b600061400885828601613f86565b925050602061401985828601613d80565b9150509250929050565b600060ff82169050919050565b61403981614023565b811461404457600080fd5b50565b60008135905061405681614030565b92915050565b60008060006060848603121561407557614074613a8e565b5b600061408386828701614047565b935050602061409486828701613c26565b92505060406140a586828701613c26565b9150509250925092565b6140b881613c05565b82525050565b60006020820190506140d360008301846140af565b92915050565b6000806000604084860312156140f2576140f1613a8e565b5b600061410086828701613d80565b935050602084013567ffffffffffffffff81111561412157614120613a93565b5b61412d86828701613da4565b92509250509250925092565b600080fd5b7f4e487b7100000000000000000000000000000000000000000000000000000000600052604160045260246000fd5b61417682613b99565b810181811067ffffffffffffffff821117156141955761419461413e565b5b80604052505050565b60006141a8613a84565b90506141b4828261416d565b919050565b600067ffffffffffffffff8211156141d4576141d361413e565b5b6141dd82613b99565b9050602081019050919050565b82818337600083830152505050565b600061420c614207846141b9565b61419e565b90508281526020810184848401111561422857614227614139565b5b6142338482856141ea565b509392505050565b600082601f8301126142505761424f613d95565b5b81356142608482602086016141f9565b91505092915050565b60006020828403121561427f5761427e613a8e565b5b600082013567ffffffffffffffff81111561429d5761429c613a93565b5b6142a98482850161423b565b91505092915050565b600063ffffffff82169050919050565b6142cb816142b2565b82525050565b60006020820190506142e660008301846142c2565b92915050565b60006020828403121561430257614301613a8e565b5b600061431084828501613d80565b91505092915050565b60007fff0000000000000000000000000000000000000000000000000000000000000082169050919050565b61434e81614319565b82525050565b600081519050919050565b600082825260208201905092915050565b600061437b82614354565b614385818561435f565b9350614395818560208601613b6f565b61439e81613b99565b840191505092915050565b600081519050919050565b600082825260208201905092915050565b6000819050602082019050919050565b60006143e18383613e7d565b60208301905092915050565b6000602082019050919050565b6000614405826143a9565b61440f81856143b4565b935061441a836143c5565b8060005b8381101561444b57815161443288826143d5565b975061443d836143ed565b92505060018101905061441e565b5085935050505092915050565b600060e08201905061446d600083018a614345565b818103602083015261447f8189614370565b905081810360408301526144938188614370565b90506144a260608301876140af565b6144af6080830186613cad565b6144bc60a0830185613f30565b81810360c08301526144ce81846143fa565b905098975050505050505050565b60008083601f8401126144f2576144f1613d95565b5b8235905067ffffffffffffffff81111561450f5761450e613d9a565b5b60208301915083602082028301111561452b5761452a613d9f565b5b9250929050565b60008060008060008060008060008060a08b8d03121561455557614554613a8e565b5b60008b013567ffffffffffffffff81111561457357614572613a93565b5b61457f8d828e016144dc565b9a509a505060208b013567ffffffffffffffff8111156145a2576145a1613a93565b5b6145ae8d828e016144dc565b985098505060408b013567ffffffffffffffff8111156145d1576145d0613a93565b5b6145dd8d828e016144dc565b965096505060608b013567ffffffffffffffff811115614600576145ff613a93565b5b61460c8d828e016144dc565b945094505060808b013567ffffffffffffffff81111561462f5761462e613a93565b5b61463b8d828e016144dc565b92509250509295989b9194979a5092959850565b600080fd5b60006060828403121561466a5761466961464f565b5b81905092915050565b60008060006040848603121561468c5761468b613a8e565b5b600084013567ffffffffffffffff8111156146aa576146a9613a93565b5b6146b686828701614654565b935050602084013567ffffffffffffffff8111156146d7576146d6613a93565b5b6146e386828701613da4565b92509250509250925092565b6146f881614023565b82525050565b600060208201905061471360008301846146ef565b92915050565b600067ffffffffffffffff8211156147345761473361413e565b5b602082029050602081019050919050565b600061475861475384614719565b61419e565b9050808382526020820190506020840283018581111561477b5761477a613d9f565b5b835b818110156147a457806147908882613c26565b84526020840193505060208101905061477d565b5050509392505050565b600082601f8301126147c3576147c2613d95565b5b81356147d3848260208601614745565b91505092915050565b6000602082840312156147f2576147f1613a8e565b5b600082013567ffffffffffffffff8111156148105761480f613a93565b5b61481c848285016147ae565b91505092915050565b600060408201905061483a60008301856140af565b61484760208301846140af565b9392505050565b600081905092915050565b6000614865838561484e565b93506148728385846141ea565b82840190509392505050565b600061488b828486614859565b91508190509392505050565b60006080820190506148ac6000830187613f30565b6148b96020830186613cad565b6148c660408301856140af565b6148d36060830184613f30565b95945050505050565b7f496e636f72726563742053746174757300000000000000000000000000000000600082015250565b600061491260108361435f565b915061491d826148dc565b602082019050919050565b6000602082019050818103600083015261494181614905565b9050919050565b614951816142b2565b811461495c57600080fd5b50565b60008151905061496e81614948565b92915050565b60006020828403121561498a57614989613a8e565b5b60006149988482850161495f565b91505092915050565b60006149ac82613b53565b6149b6818561484e565b93506149c6818560208601613b6f565b80840191505092915050565b60006149de82856149a1565b91506149ea82846149a1565b91508190509392505050565b6000614a0282846149a1565b915081905092915050565b7f4e487b7100000000000000000000000000000000000000000000000000000000600052602260045260246000fd5b60006002820490506001821680614a5457607f821691505b602082108103614a6757614a66614a0d565b5b50919050565b7f4e487b7100000000000000000000000000000000000000000000000000000000600052601160045260246000fd5b6000614aa782613c05565b9150614ab283613c05565b9250828201905080821115614aca57614ac9614a6d565b5b92915050565b600080fd5b600080fd5b600080fd5b60008083356001602003843603038112614afc57614afb614ad0565b5b80840192508235915067ffffffffffffffff821115614b1e57614b1d614ad5565b5b602083019250600182023603831315614b3a57614b39614ada565b5b509250929050565b600067ffffffffffffffff821115614b5d57614b5c61413e565b5b602082029050602081019050919050565b6000614b81614b7c84614b42565b61419e565b90508083825260208201905060208402830185811115614ba457614ba3613d9f565b5b835b81811015614beb57803567ffffffffffffffff811115614bc957614bc8613d95565b5b808601614bd6898261423b565b85526020850194505050602081019050614ba6565b5050509392505050565b600082601f830112614c0a57614c09613d95565b5b8135614c1a848260208601614b6e565b91505092915050565b600080600080600060a08688031215614c3f57614c3e613a8e565b5b600086013567ffffffffffffffff811115614c5d57614c5c613a93565b5b614c6988828901614bf5565b955050602086013567ffffffffffffffff811115614c8a57614c89613a93565b5b614c9688828901614bf5565b945050604086013567ffffffffffffffff811115614cb757614cb6613a93565b5b614cc388828901614bf5565b935050606086013567ffffffffffffffff811115614ce457614ce3613a93565b5b614cf088828901614bf5565b925050608086013567ffffffffffffffff811115614d1157614d10613a93565b5b614d1d88828901614bf5565b9150509295509295909350565b600081519050919050565b600082825260208201905092915050565b6000819050602082019050919050565b6000614d628383613e9d565b905092915050565b6000602082019050919050565b6000614d8282614d2a565b614d8c8185614d35565b935083602082028501614d9e85614d46565b8060005b85811015614dda5784840389528151614dbb8582614d56565b9450614dc683614d6a565b925060208a01995050600181019050614da2565b50829750879550505050505092915050565b600060a0820190508181036000830152614e068188614d77565b90508181036020830152614e1a8187614d77565b90508181036040830152614e2e8186614d77565b90508181036060830152614e428185614d77565b90508181036080830152614e568184614d77565b90509695505050505050565b614e6b81613b1d565b8114614e7657600080fd5b50565b600081519050614e8881614e62565b92915050565b600060208284031215614ea457614ea3613a8e565b5b6000614eb284828501614e79565b91505092915050565b60028110614ecc57614ecb613cd7565b5b50565b6000819050614edd82614ebb565b919050565b6000614eed82614ecf565b9050919050565b614efd81614ee2565b82525050565b600060a082019050614f1860008301886140af565b614f256020830187614ef4565b614f3260408301866146ef565b614f3f60608301856140af565b614f4c60808301846140af565b9695505050505050565b60006020820190508181036000830152614f7081846143fa565b905092915050565b7f436f6e666967206e6f7420736574000000000000000000000000000000000000600082015250565b6000614fae600e8361435f565b9150614fb982614f78565b602082019050919050565b60006020820190508181036000830152614fdd81614fa1565b9050919050565b7f4e62204e756d62657273206d7573742062652067726561746572207468616e2060008201527f3000000000000000000000000000000000000000000000000000000000000000602082015250565b600061504060218361435f565b915061504b82614fe4565b604082019050919050565b6000602082019050818103600083015261506f81615033565b9050919050565b7f6d6178206d7573742062652067726561746572207468616e206d696e00000000600082015250565b60006150ac601c8361435f565b91506150b782615076565b602082019050919050565b600060208201905081810360008301526150db8161509f565b9050919050565b7f4e487b7100000000000000000000000000000000000000000000000000000000600052603260045260246000fd5b600061511d8385613b5e565b935061512a8385846141ea565b61513383613b99565b840190509392505050565b60006060820190508181036000830152615159818688615111565b905061516860208301856142c2565b61517560408301846142c2565b95945050505050565b600082905092915050565b60008190508160005260206000209050919050565b60006020601f8301049050919050565b600082821b905092915050565b6000600883026151eb7fffffffffffffffffffffffffffffffffffffffffffffffffffffffffffffffff826151ae565b6151f586836151ae565b95508019841693508086168417925050509392505050565b6000819050919050565b600061523261522d61522884613c05565b61520d565b613c05565b9050919050565b6000819050919050565b61524c83615217565b61526061525882615239565b8484546151bb565b825550505050565b600090565b615275615268565b615280818484615243565b505050565b5b818110156152a45761529960008261526d565b600181019050615286565b5050565b601f8211156152e9576152ba81615189565b6152c38461519e565b810160208510156152d2578190505b6152e66152de8561519e565b830182615285565b50505b505050565b600082821c905092915050565b600061530c600019846008026152ee565b1980831691505092915050565b600061532583836152fb565b9150826002028217905092915050565b61533f838361517e565b67ffffffffffffffff8111156153585761535761413e565b5b6153628254614a3c565b61536d8282856152a8565b6000601f83116001811461539c576000841561538a578287013590505b6153948582615319565b8655506153fc565b601f1984166153aa86615189565b60005b828110156153d2578489013582556001820191506020850194506020810190506153ad565b868310156153ef57848901356153eb601f8916826152fb565b8355505b6001600288020188555050505b50505050505050565b6000615410826142b2565b915061541b836142b2565b9250828201905063ffffffff81111561543757615436614a6d565b5b92915050565b600061545861545361544e846142b2565b61520d565b613c05565b9050919050565b6154688161543d565b82525050565b6000604082019050615483600083018561545f565b81810360208301526154958184613baa565b90509392505050565b7f496e636f7272656374206e62206e756d62657273000000000000000000000000600082015250565b60006154d460148361435f565b91506154df8261549e565b602082019050919050565b60006020820190508181036000830152615503816154c7565b9050919050565b7f4e756d62657220746f6f206c6f77000000000000000000000000000000000000600082015250565b6000615540600e8361435f565b915061554b8261550a565b602082019050919050565b6000602082019050818103600083015261556f81615533565b9050919050565b7f4e756d62657220746f6f20686967680000000000000000000000000000000000600082015250565b60006155ac600f8361435f565b91506155b782615576565b602082019050919050565b600060208201905081810360008301526155db8161559f565b9050919050565b60006040820190506155f76000830185613cad565b6156046020830184613f30565b9392505050565b600080fd5b600080fd5b600080858511156156295761562861560b565b5b8386111561563a57615639615610565b5b6001850283019150848603905094509492505050565b60008135905061565f81614948565b92915050565b60006020828403121561567b5761567a613a8e565b5b600061568984828501615650565b91505092915050565b600061569d82613c7b565b9050919050565b6156ad81615692565b81146156b857600080fd5b50565b6000813590506156ca816156a4565b92915050565b6000602082840312156156e6576156e5613a8e565b5b60006156f4848285016156bb565b91505092915050565b61570682613b53565b67ffffffffffffffff81111561571f5761571e61413e565b5b6157298254614a3c565b6157348282856152a8565b600060209050601f8311600181146157675760008415615755578287015190505b61575f8582615319565b8655506157c7565b601f19841661577586615189565b60005b8281101561579d57848901518255600182019150602085019450602081019050615778565b868310156157ba57848901516157b6601f8916826152fb565b8355505b6001600288020188555050505b505050505050565b600060a0820190506157e46000830188613f30565b6157f16020830187613f30565b6157fe6040830186613f30565b61580b60608301856140af565b6158186080830184613cad565b9695505050505050565b6002811061582f57600080fd5b50565b60008135905061584181615822565b92915050565b6000806000806080858703121561586157615860613a8e565b5b600061586f87828801613c26565b945050602061588087828801615832565b935050604085013567ffffffffffffffff8111156158a1576158a0613a93565b5b6158ad8782880161423b565b925050606085013567ffffffffffffffff8111156158ce576158cd613a93565b5b6158da8782880161423b565b91505092959194509250565b7f63616e6e6f7420706172736520616374696f6e00000000000000000000000000600082015250565b600061591c60138361435f565b9150615927826158e6565b602082019050919050565b6000602082019050818103600083015261594b8161590f565b9050919050565b60008151905061596181614030565b92915050565b60008151905061597681613c0f565b92915050565b60008060006060848603121561599557615994613a8e565b5b60006159a386828701615952565b93505060206159b486828701615967565b92505060406159c586828701615967565b9150509250925092565b60006159e26159dd84614719565b61419e565b90508083825260208201905060208402830185811115615a0557615a04613d9f565b5b835b81811015615a2e5780615a1a8882615967565b845260208401935050602081019050615a07565b5050509392505050565b600082601f830112615a4d57615a4c613d95565b5b8151615a5d8482602086016159cf565b91505092915050565b600060208284031215615a7c57615a7b613a8e565b5b600082015167ffffffffffffffff811115615a9a57615a99613a93565b5b615aa684828501615a38565b91505092915050565b600067ffffffffffffffff821115615aca57615ac961413e565b5b602082029050602081019050919050565b600081519050615aea81613d69565b92915050565b6000615b03615afe84615aaf565b61419e565b90508083825260208201905060208402830185811115615b2657615b25613d9f565b5b835b81811015615b4f5780615b3b8882615adb565b845260208401935050602081019050615b28565b5050509392505050565b600082601f830112615b6e57615b6d613d95565b5b8151615b7e848260208601615af0565b91505092915050565b600060208284031215615b9d57615b9c613a8e565b5b600082015167ffffffffffffffff811115615bbb57615bba613a93565b5b615bc784828501615b59565b91505092915050565b6000604082019050615be5600083018561545f565b615bf2602083018461545f565b9392505050565b6000602082019050615c0e600083018461545f565b92915050565b6000608082019050615c296000830187613f30565b615c3660208301866146ef565b615c436040830185613f30565b615c506060830184613f30565b95945050505050565b6000606082019050615c6e60008301866140af565b615c7b6020830185614ef4565b8181036040830152615c8d81846143fa565b9050949350505050565b7f446966666572656e74206e62206e756d62657273000000000000000000000000600082015250565b6000615ccd60148361435f565b9150615cd882615c97565b602082019050919050565b60006020820190508181036000830152615cfc81615cc0565b9050919050565b7f446966666572656e74206d696e206e756d626572000000000000000000000000600082015250565b6000615d3960148361435f565b9150615d4482615d03565b602082019050919050565b60006020820190508181036000830152615d6881615d2c565b9050919050565b7f446966666572656e74206d6178206e756d626572000000000000000000000000600082015250565b6000615da560148361435f565b9150615db082615d6f565b602082019050919050565b60006020820190508181036000830152615dd481615d98565b9050919050565b7f496e636f727265637420526166666c6520496400000000000000000000000000600082015250565b6000615e1160138361435f565b9150615e1c82615ddb565b602082019050919050565b60006020820190508181036000830152615e4081615e04565b9050919050565b7f446966666572656e7420726573756c7473000000000000000000000000000000600082015250565b6000615e7d60118361435f565b9150615e8882615e47565b602082019050919050565b60006020820190508181036000830152615eac81615e70565b9050919050565b600081519050919050565b600082825260208201905092915050565b6000819050602082019050919050565b6000615eeb8383613e6e565b60208301905092915050565b6000602082019050919050565b6000615f0f82615eb3565b615f198185615ebe565b9350615f2483615ecf565b8060005b83811015615f55578151615f3c8882615edf565b9750615f4783615ef7565b925050600181019050615f28565b5085935050505092915050565b60006020820190508181036000830152615f7c8184615f04565b90509291505056fea2646970667358221220d3b4fe9c62b143c4ff4bfaf874cecf0d48bdae23066b2fdbcddb80bb43a7438864736f6c63430008180033",
  "linkReferences": {},
  "deployedLinkReferences": {}
}